{
  "contractName": "mvp",
  "abi": [
    {
      "constant": true,
      "inputs": [
        {
          "internalType": "bytes4",
          "name": "interfaceID",
          "type": "bytes4"
        }
      ],
      "name": "supportsInterface",
      "outputs": [
        {
          "internalType": "bool",
          "name": "",
          "type": "bool"
        }
      ],
      "payable": false,
      "stateMutability": "view",
      "type": "function"
    },
    {
      "constant": false,
      "inputs": [
        {
          "internalType": "string",
          "name": "raceId",
          "type": "string"
        },
        {
          "internalType": "bytes32",
          "name": "startMarkerHash",
          "type": "bytes32"
        },
        {
          "internalType": "string",
          "name": "startMarkerSecret",
          "type": "string"
        }
      ],
      "name": "createRace",
      "outputs": [],
      "payable": true,
      "stateMutability": "payable",
      "type": "function"
    },
    {
      "constant": false,
      "inputs": [
        {
          "internalType": "string",
          "name": "raceId",
          "type": "string"
        },
        {
          "internalType": "bytes32",
          "name": "waypointHash",
          "type": "bytes32"
        },
        {
          "internalType": "string",
          "name": "waypointSecret",
          "type": "string"
        }
      ],
      "name": "addWaypoint",
      "outputs": [
        {
          "internalType": "bool",
          "name": "",
          "type": "bool"
        },
        {
          "internalType": "uint8",
          "name": "",
          "type": "uint8"
        }
      ],
      "payable": false,
      "stateMutability": "nonpayable",
      "type": "function"
    },
    {
      "constant": false,
      "inputs": [
        {
          "internalType": "string",
          "name": "raceId",
          "type": "string"
        },
        {
          "internalType": "string",
          "name": "raceSecret",
          "type": "string"
        }
      ],
      "name": "startRace",
      "outputs": [],
      "payable": true,
      "stateMutability": "payable",
      "type": "function"
    },
    {
      "constant": false,
      "inputs": [
        {
          "internalType": "string",
          "name": "raceId",
          "type": "string"
        }
      ],
      "name": "register",
      "outputs": [],
      "payable": true,
      "stateMutability": "payable",
      "type": "function"
    },
    {
      "constant": false,
      "inputs": [
        {
          "internalType": "string",
          "name": "raceId",
          "type": "string"
        },
        {
          "internalType": "uint8",
          "name": "markerId",
          "type": "uint8"
        },
        {
          "internalType": "string",
          "name": "markerValue",
          "type": "string"
        }
      ],
      "name": "prove",
      "outputs": [
        {
          "internalType": "bool",
          "name": "proven",
          "type": "bool"
        },
        {
          "internalType": "uint8",
          "name": "cause",
          "type": "uint8"
        }
      ],
      "payable": false,
      "stateMutability": "nonpayable",
      "type": "function"
    },
    {
      "constant": false,
      "inputs": [
        {
          "internalType": "string",
          "name": "raceId",
          "type": "string"
        }
      ],
      "name": "completeRace",
      "outputs": [],
      "payable": false,
      "stateMutability": "nonpayable",
      "type": "function"
    },
    {
      "constant": true,
      "inputs": [
        {
          "internalType": "string",
          "name": "thing",
          "type": "string"
        }
      ],
      "name": "keccak256helper",
      "outputs": [
        {
          "internalType": "bytes32",
          "name": "",
          "type": "bytes32"
        }
      ],
      "payable": false,
      "stateMutability": "pure",
      "type": "function"
    },
    {
      "constant": true,
      "inputs": [
        {
          "internalType": "string",
          "name": "raceId",
          "type": "string"
        }
      ],
      "name": "raceExists",
      "outputs": [
        {
          "internalType": "bool",
          "name": "",
          "type": "bool"
        }
      ],
      "payable": false,
      "stateMutability": "view",
      "type": "function"
    },
    {
      "constant": true,
      "inputs": [
        {
          "internalType": "string",
          "name": "raceId",
          "type": "string"
        },
        {
          "internalType": "uint8",
          "name": "markerId",
          "type": "uint8"
        }
      ],
      "name": "markerExists",
      "outputs": [
        {
          "internalType": "bool",
          "name": "",
          "type": "bool"
        }
      ],
      "payable": false,
      "stateMutability": "view",
      "type": "function"
    },
    {
      "constant": true,
      "inputs": [
        {
          "internalType": "string",
          "name": "raceId",
          "type": "string"
        }
      ],
      "name": "isRaceRunning",
      "outputs": [
        {
          "internalType": "bool",
          "name": "",
          "type": "bool"
        }
      ],
      "payable": false,
      "stateMutability": "view",
      "type": "function"
    }
  ],
  "bytecode": "0x608060405234801561001057600080fd5b50611918806100206000396000f3fe60806040526004361061009c5760003560e01c8063549a108411610064578063549a1084146105545780637b6284e4146106415780638a5d9512146107215780639d02cd54146107a7578063ef8f2d3714610841578063f2c298be146109215761009c565b806301ffc9a7146100a157806314dfb22e1461011357806329fa8586146101e15780632f707a5c146102b9578063398606021461044a575b600080fd5b3480156100ad57600080fd5b506100f9600480360360208110156100c457600080fd5b8101908080357bffffffffffffffffffffffffffffffffffffffffffffffffffffffff191690602001909291905050506109dc565b604051808215151515815260200191505060405180910390f35b6101df6004803603604081101561012957600080fd5b810190808035906020019064010000000081111561014657600080fd5b82018360208201111561015857600080fd5b8035906020019184600183028401116401000000008311171561017a57600080fd5b90919293919293908035906020019064010000000081111561019b57600080fd5b8201836020820111156101ad57600080fd5b803590602001918460018302840111640100000000831117156101cf57600080fd5b9091929391929390505050610a43565b005b6102b7600480360360608110156101f757600080fd5b810190808035906020019064010000000081111561021457600080fd5b82018360208201111561022657600080fd5b8035906020019184600183028401116401000000008311171561024857600080fd5b9091929391929390803590602001909291908035906020019064010000000081111561027357600080fd5b82018360208201111561028557600080fd5b803590602001918460018302840111640100000000831117156102a757600080fd5b9091929391929390505050610a49565b005b3480156102c557600080fd5b50610423600480360360608110156102dc57600080fd5b81019080803590602001906401000000008111156102f957600080fd5b82018360208201111561030b57600080fd5b8035906020019184600183028401116401000000008311171561032d57600080fd5b91908080601f016020809104026020016040519081016040528093929190818152602001838380828437600081840152601f19601f820116905080830192505050505050509192919290803560ff1690602001909291908035906020019064010000000081111561039d57600080fd5b8201836020820111156103af57600080fd5b803590602001918460018302840111640100000000831117156103d157600080fd5b91908080601f016020809104026020016040519081016040528093929190818152602001838380828437600081840152601f19601f820116905080830192505050505050509192919290505050610cc5565b60405180831515151581526020018260ff1660ff1681526020019250505060405180910390f35b34801561045657600080fd5b5061052d6004803603606081101561046d57600080fd5b810190808035906020019064010000000081111561048a57600080fd5b82018360208201111561049c57600080fd5b803590602001918460018302840111640100000000831117156104be57600080fd5b909192939192939080359060200190929190803590602001906401000000008111156104e957600080fd5b8201836020820111156104fb57600080fd5b8035906020019184600183028401116401000000008311171561051d57600080fd5b9091929391929390505050610ec8565b60405180831515151581526020018260ff1660ff1681526020019250505060405180910390f35b34801561056057600080fd5b506106276004803603604081101561057757600080fd5b810190808035906020019064010000000081111561059457600080fd5b8201836020820111156105a657600080fd5b803590602001918460018302840111640100000000831117156105c857600080fd5b91908080601f016020809104026020016040519081016040528093929190818152602001838380828437600081840152601f19601f820116905080830192505050505050509192919290803560ff1690602001909291905050506111b1565b604051808215151515815260200191505060405180910390f35b34801561064d57600080fd5b506107076004803603602081101561066457600080fd5b810190808035906020019064010000000081111561068157600080fd5b82018360208201111561069357600080fd5b803590602001918460018302840111640100000000831117156106b557600080fd5b91908080601f016020809104026020016040519081016040528093929190818152602001838380828437600081840152601f19601f82011690508083019250505050505050919291929050505061127a565b604051808215151515815260200191505060405180910390f35b34801561072d57600080fd5b506107a56004803603602081101561074457600080fd5b810190808035906020019064010000000081111561076157600080fd5b82018360208201111561077357600080fd5b8035906020019184600183028401116401000000008311171561079557600080fd5b9091929391929390505050611360565b005b3480156107b357600080fd5b5061082b600480360360208110156107ca57600080fd5b81019080803590602001906401000000008111156107e757600080fd5b8201836020820111156107f957600080fd5b8035906020019184600183028401116401000000008311171561081b57600080fd5b9091929391929390505050611364565b6040518082815260200191505060405180910390f35b34801561084d57600080fd5b506109076004803603602081101561086457600080fd5b810190808035906020019064010000000081111561088157600080fd5b82018360208201111561089357600080fd5b803590602001918460018302840111640100000000831117156108b557600080fd5b91908080601f016020809104026020016040519081016040528093929190818152602001838380828437600081840152601f19601f82011690508083019250505050505050919291929050505061139e565b604051808215151515815260200191505060405180910390f35b6109da6004803603602081101561093757600080fd5b810190808035906020019064010000000081111561095457600080fd5b82018360208201111561096657600080fd5b8035906020019184600183028401116401000000008311171561098857600080fd5b91908080601f016020809104026020016040519081016040528093929190818152602001838380828437600081840152601f19601f8201169050808301925050505050505091929192905050506114c0565b005b6000806000837bffffffffffffffffffffffffffffffffffffffffffffffffffffffff19167bffffffffffffffffffffffffffffffffffffffffffffffffffffffff1916815260200190815260200160002060009054906101000a900460ff169050919050565b50505050565b670de0b6b3a76400003414610ac6576040517f08c379a000000000000000000000000000000000000000000000000000000000815260040180806020018281038252601f8152602001807f5374617274207261636520776974682065786163746c7920312065746865720081525060200191505060405180910390fd5b610ace6117f0565b6040518060800160405280600160ff168152602001600060ff16815260200185815260200184848080601f016020809104026020016040519081016040528093929190818152602001838380828437600081840152601f19601f820116905080830192505050505050508152509050610b45611821565b6040518060400160405280600160ff16815260200188888080601f016020809104026020016040519081016040528093929190818152602001838380828437600081840152601f19601f8201169050808301925050505050505081525090508060018888604051808383808284378083019250505092505050908152602001604051809103902060008201518160000160006101000a81548160ff021916908360ff1602179055506020820151816001019080519060200190610c0992919061183e565b50905050816001888860405180838380828437808301925050509250505090815260200160405180910390206003016000600160ff1660ff16815260200190815260200160002060008201518160000160006101000a81548160ff021916908360ff16021790555060208201518160000160016101000a81548160ff021916908360ff160217905550604082015181600101556060820151816002019080519060200190610cb892919061183e565b5090505050505050505050565b600080610cd285856111b1565b15610eb8576001856040518082805190602001908083835b60208310610d0d5780518252602082019150602081019050602083039250610cea565b6001836020036101000a038019825116818451168082178552505050505050905001915050908152602001604051809103902060030160008560ff1660ff16815260200190815260200160002060010154836040516020018082805190602001908083835b60208310610d955780518252602082019150602081019050602083039250610d72565b6001836020036101000a038019825116818451168082178552505050505050905001915050604051602081830303815290604052805190602001201415610eab57436001866040518082805190602001908083835b60208310610e0d5780518252602082019150602081019050602083039250610dea565b6001836020036101000a038019825116818451168082178552505050505050905001915050908152602001604051809103902060030160008660ff1660ff16815260200190815260200160002060030160003373ffffffffffffffffffffffffffffffffffffffff1673ffffffffffffffffffffffffffffffffffffffff16815260200190815260200160002081905550600160ff91509150610ec0565b6000606591509150610ec0565b600080915091505b935093915050565b600080610f1a87878080601f016020809104026020016040519081016040528093929190818152602001838380828437600081840152601f19601f8201169050808301925050505050505060016111b1565b1561119f57600160ff1660018888604051808383808284378083019250505092505050908152602001604051809103902060000160009054906101000a900460ff1660ff16141561115c5760006001905060006001820190505b610fc289898080601f016020809104026020016040519081016040528093929190818152602001838380828437600081840152601f19601f82011690508083019250505050505050826111b1565b15610fd857600182019150600182019050610f74565b60405180608001604052808260ff168152602001600060ff16815260200188815260200187878080601f016020809104026020016040519081016040528093929190818152602001838380828437600081840152601f19601f8201169050808301925050505050505081525060018a8a604051808383808284378083019250505092505050908152602001604051809103902060030160008360ff1660ff16815260200190815260200160002060008201518160000160006101000a81548160ff021916908360ff16021790555060208201518160000160016101000a81548160ff021916908360ff1602179055506040820151816001015560608201518160020190805190602001906110ed92919061183e565b509050508060018a8a604051808383808284378083019250505092505050908152602001604051809103902060030160008460ff1660ff16815260200190815260200160002060000160016101000a81548160ff021916908360ff1602179055506001809350935050506111a7565b600060018888604051808383808284378083019250505092505050908152602001604051809103902060000160009054906101000a900460ff16915091506111a7565b600080915091505b9550959350505050565b60006111bc8361127a565b80156111ce5750600060ff168260ff16115b801561127257508160ff166001846040518082805190602001908083835b6020831061120f57805182526020820191506020810190506020830392506111ec565b6001836020036101000a038019825116818451168082178552505050505050905001915050908152602001604051809103902060030160008460ff1660ff16815260200190815260200160002060000160009054906101000a900460ff1660ff16145b905092915050565b600081805190602001206001836040518082805190602001908083835b602083106112ba5780518252602082019150602081019050602083039250611297565b6001836020036101000a0380198251168184511680821785525050505050509050019150509081526020016040518091039020600101604051808280546001816001161561010002031660029004801561134b5780601f1061132957610100808354040283529182019161134b565b820191906000526020600020905b815481529060010190602001808311611337575b50509150506040518091039020149050919050565b5050565b6000828260405160200180838380828437808301925050509250505060405160208183030381529060405280519060200120905092915050565b60006113a98261127a565b8015611431575060006001836040518082805190602001908083835b602083106113e857805182526020820191506020810190506020830392506113c5565b6001836020036101000a038019825116818451168082178552505050505050905001915050908152602001604051809103902060000160009054906101000a900460ff1660ff16115b80156114b9575060ff6001836040518082805190602001908083835b60208310611470578051825260208201915060208101905060208303925061144d565b6001836020036101000a038019825116818451168082178552505050505050905001915050908152602001604051809103902060000160009054906101000a900460ff1660ff16105b9050919050565b670de0b6b3a7640000341461153d576040517f08c379a000000000000000000000000000000000000000000000000000000000815260040180806020018281038252601d8152602001807f526567697374657220776974682065786163746c79203120657468657200000081525060200191505060405180910390fd5b80805190602001206001826040518082805190602001908083835b6020831061157b5780518252602082019150602081019050602083039250611558565b6001836020036101000a0380198251168184511680821785525050505050509050019150509081526020016040518091039020600101604051808280546001816001161561010002031660029004801561160c5780601f106115ea57610100808354040283529182019161160c565b820191906000526020600020905b8154815290600101906020018083116115f8575b5050915050604051809103902014156117ed5760006001826040518082805190602001908083835b602083106116575780518252602082019150602081019050602083039250611634565b6001836020036101000a038019825116818451168082178552505050505050905001915050908152602001604051809103902060020160003373ffffffffffffffffffffffffffffffffffffffff1673ffffffffffffffffffffffffffffffffffffffff168152602001908152602001600020541461173e576040517f08c379a00000000000000000000000000000000000000000000000000000000081526004018080602001828103825260188152602001807f526163657220616c72656164792072656769737465726564000000000000000081525060200191505060405180910390fd5b436001826040518082805190602001908083835b602083106117755780518252602082019150602081019050602083039250611752565b6001836020036101000a038019825116818451168082178552505050505050905001915050908152602001604051809103902060020160003373ffffffffffffffffffffffffffffffffffffffff1673ffffffffffffffffffffffffffffffffffffffff168152602001908152602001600020819055505b50565b6040518060800160405280600060ff168152602001600060ff16815260200160008019168152602001606081525090565b6040518060400160405280600060ff168152602001606081525090565b828054600181600116156101000203166002900490600052602060002090601f016020900481019282601f1061187f57805160ff19168380011785556118ad565b828001600101855582156118ad579182015b828111156118ac578251825591602001919060010190611891565b5b5090506118ba91906118be565b5090565b6118e091905b808211156118dc5760008160009055506001016118c4565b5090565b9056fea265627a7a7231582018f7838ba0ac6cdf88f4bb99647b6f949dd8738076af1b16032fa23861d29d8b64736f6c634300050c0032",
  "source": "pragma solidity >=0.4.21 <0.7.0;\n\nimport \"./ERC165.sol\";\nimport \"./AmazingRace.sol\";\n\ncontract mvp is AmazingRace, ERC165Mappable {\n\n  uint8 constant RETURN_NOT_FOUND = 0;\n  uint8 constant RETURN_FOUND = 1;\n  uint8 constant RETURN_UNPROVEN = 101;\n  uint8 constant RETURN_PROVEN = 255;\n\n  uint8 constant STATE_INIT = 1;\n  uint8 constant STATE_RUNNING = 15;\n  uint8 constant STATE_COMPLETED = 127;\n  uint8 constant STATE_CLOSED = 255;\n\n  uint8 constant RACE_MARKER_NONE = 0;\n  uint8 constant RACE_MARKER_ROOT = 1;\n\n  //race mapping\n  mapping(string => Race) races;\n\n  function createRace(string calldata raceId, bytes32 startMarkerHash, string calldata startMarkerSecret) external payable {\n    //TODO: add race owner logic, check for existing race by that name\n    require (msg.value == 1 ether, \"Start race with exactly 1 ether\");\n    RaceMarker memory startMarker = RaceMarker(RACE_MARKER_ROOT, RACE_MARKER_NONE, startMarkerHash, startMarkerSecret);\n    Race memory newRace = Race(STATE_INIT, raceId);\n    races[raceId] = newRace;\n    races[raceId].markerMap[RACE_MARKER_ROOT] = startMarker;\n  }\n\n  function addWaypoint(string calldata raceId, bytes32 waypointHash, string calldata waypointSecret) external returns (bool, uint8) {\n    //TODO: add race owner logic for authz\n    if (markerExists(raceId, 1)) {\n      if (races[raceId].raceState == STATE_INIT) {\n        uint8 raceMarkerId = RACE_MARKER_ROOT;\n        uint8 newRaceMarkerId = raceMarkerId + 1;\n        // TODO: safe arithmetic here\n        while(markerExists(raceId, newRaceMarkerId)) {\n          raceMarkerId = raceMarkerId + 1;\n          newRaceMarkerId = raceMarkerId + 1;\n        }\n        // TODO: safe arithmetic here\n        races[raceId].markerMap[newRaceMarkerId] = RaceMarker(newRaceMarkerId, RACE_MARKER_NONE, waypointHash, waypointSecret);\n        races[raceId].markerMap[raceMarkerId].nextMarkerId = newRaceMarkerId;\n        return (true, STATE_INIT);\n      }\n      return (false, races[raceId].raceState);\n\n    }\n    return (false, RETURN_NOT_FOUND);\n  }\n\n  function startRace(string calldata raceId, string calldata raceSecret) external payable {\n    //no-op, TODO: add race owner logic to set race to \"started\", payable logic\n    return;\n  }\n\n  function register(string memory raceId) public payable {\n    // kiss for now\n    require (msg.value == 1 ether, \"Register with exactly 1 ether\");\n    if (keccak256(bytes(races[raceId].raceId)) == keccak256(bytes(raceId))) {\n      require (races[raceId].racers[msg.sender] == 0, \"Racer already registered\");\n        races[raceId].racers[msg.sender] = block.number;\n    }\n  }\n\n  function prove(string memory raceId, uint8 markerId, string memory markerValue) public returns (bool proven, uint8 cause) {\n    if (markerExists(raceId, markerId)) {\n      if (keccak256(abi.encodePacked(markerValue)) == races[raceId].markerMap[markerId].markerHash){\n        races[raceId].markerMap[markerId].foundByRacers[msg.sender] = block.number;\n        return (true, RETURN_PROVEN);\n      }\n      return (false, RETURN_UNPROVEN);\n    }\n    return (false, RETURN_NOT_FOUND);\n  }\n\n  function completeRace(string calldata raceId) external {\n    //no-op for now. need more shape!\n    return;\n  }\n\n  function keccak256helper(string calldata thing) external pure returns (bytes32) {\n    return keccak256(abi.encodePacked(thing));\n  }\n\n  function raceExists(string memory raceId) public view returns (bool) {\n    return keccak256(bytes(races[raceId].raceId)) == keccak256(bytes(raceId));\n  }\n\n  function markerExists(string memory raceId, uint8 markerId) public view returns (bool) {\n    return raceExists(raceId) && markerId > RACE_MARKER_NONE &&\n      races[raceId].markerMap[markerId].markerId == markerId;\n  }\n\n  function isRaceRunning(string memory raceId) public view returns (bool) {\n    return raceExists(raceId) && races[raceId].raceState > 0 && races[raceId].raceState < 255;\n  }\n\n}",
  "sourcePath": "/Users/garyschulte/dev/crypto/amazing_race/contracts/mvp.sol",
  "compiler": {
    "name": "solc",
    "version": "0.5.12+commit.7709ece9.Emscripten.clang"
  },
  "schemaVersion": "3.0.20",
  "updatedAt": "2020-01-01T06:08:48.526Z",
  "networkType": "ethereum",
  "devdoc": {
    "methods": {}
  },
  "userdoc": {
    "methods": {}
  }
}