{
  "contractName": "mvp",
  "abi": [
    {
      "payable": true,
      "stateMutability": "payable",
      "type": "fallback"
    },
    {
      "constant": true,
      "inputs": [
        {
          "internalType": "bytes4",
          "name": "interfaceID",
          "type": "bytes4"
        }
      ],
      "name": "supportsInterface",
      "outputs": [
        {
          "internalType": "bool",
          "name": "",
          "type": "bool"
        }
      ],
      "payable": false,
      "stateMutability": "view",
      "type": "function"
    },
    {
      "constant": false,
      "inputs": [],
      "name": "register",
      "outputs": [],
      "payable": true,
      "stateMutability": "payable",
      "type": "function"
    },
    {
      "constant": true,
      "inputs": [
        {
          "internalType": "string",
          "name": "thing",
          "type": "string"
        }
      ],
      "name": "gimmie",
      "outputs": [
        {
          "internalType": "bytes32",
          "name": "resp",
          "type": "bytes32"
        }
      ],
      "payable": false,
      "stateMutability": "pure",
      "type": "function"
    },
    {
      "constant": false,
      "inputs": [
        {
          "internalType": "string",
          "name": "guess",
          "type": "string"
        }
      ],
      "name": "prove",
      "outputs": [
        {
          "internalType": "bool",
          "name": "",
          "type": "bool"
        }
      ],
      "payable": false,
      "stateMutability": "nonpayable",
      "type": "function"
    }
  ],
  "bytecode": "0x608060405234801561001057600080fd5b506104b7806100206000396000f3fe60806040526004361061003f5760003560e01c806301ffc9a7146100495780631aa3a008146100bb5780639d496885146100c5578063cd12e442146101a5575b610047610281565b005b34801561005557600080fd5b506100a16004803603602081101561006c57600080fd5b8101908080357bffffffffffffffffffffffffffffffffffffffffffffffffffffffff19169060200190929190505050610300565b604051808215151515815260200191505060405180910390f35b6100c3610281565b005b3480156100d157600080fd5b5061018b600480360360208110156100e857600080fd5b810190808035906020019064010000000081111561010557600080fd5b82018360208201111561011757600080fd5b8035906020019184600183028401116401000000008311171561013957600080fd5b91908080601f016020809104026020016040519081016040528093929190818152602001838380828437600081840152601f19601f820116905080830192505050505050509192919290505050610367565b604051808215151515815260200191505060405180910390f35b3480156101b157600080fd5b5061026b600480360360208110156101c857600080fd5b81019080803590602001906401000000008111156101e557600080fd5b8201836020820111156101f757600080fd5b8035906020019184600183028401116401000000008311171561021957600080fd5b91908080601f016020809104026020016040519081016040528093929190818152602001838380828437600081840152601f19601f820116905080830192505050505050509192919290505050610407565b6040518082815260200191505060405180910390f35b670de0b6b3a764000034146102fe576040517f08c379a000000000000000000000000000000000000000000000000000000000815260040180806020018281038252601d8152602001807f526567697374657220776974682065786163746c79203120657468657200000081525060200191505060405180910390fd5b565b6000806000837bffffffffffffffffffffffffffffffffffffffffffffffffffffffff19167bffffffffffffffffffffffffffffffffffffffffffffffffffffffff1916815260200190815260200160002060009054906101000a900460ff169050919050565b60007f419a4502e8d11c5715b5c9a8f63092f3b738640922cecce22029174bce39ec3f60001b826040516020018082805190602001908083835b602083106103c457805182526020820191506020810190506020830392506103a1565b6001836020036101000a03801982511681845116808217855250505050505090500191505060405160208183030381529060405280519060200120149050919050565b6000816040516020018082805190602001908083835b60208310610440578051825260208201915060208101905060208303925061041d565b6001836020036101000a03801982511681845116808217855250505050505090500191505060405160208183030381529060405280519060200120905091905056fea265627a7a7231582068b93645c5e349a205efc92650d8e5d38ae899170f6a89b6455f6e7c4c35b6dc64736f6c634300050c0032",
  "source": "pragma solidity >=0.4.21 <0.7.0;\n\nimport \"./ERC165.sol\";\n\ncontract ERC165Mappable is ERC165 {\n    /// @dev You must not set element 0xffffffff to true\n    mapping(bytes4 => bool) internal supportedInterfaces;\n\n    function ERC165MappingImplementation() internal {\n        supportedInterfaces[this.supportsInterface.selector] = true;\n    }\n\n    function supportsInterface(bytes4 interfaceID) external view returns (bool) {\n        return supportedInterfaces[interfaceID];\n    }\n}\n\ninterface AmazingRace {\n  function register() external payable;\n  function prove(string calldata guess) external returns (bool);\n  function gimmie(string calldata thing) external pure returns (bytes32);\n}\n\ncontract mvp is AmazingRace, ERC165Mappable {\n\n  bytes32 constant secretHash = 0x419a4502e8d11c5715b5c9a8f63092f3b738640922cecce22029174bce39ec3f;\n  function () external payable {\n    register();\n  }\n\n  function register() public payable {\n    // kiss\n    require (msg.value == 1 ether, \"Register with exactly 1 ether\");\n  }\n\n  function gimmie(string memory thing) public pure returns (bytes32 resp) {\n    return keccak256(abi.encodePacked(thing));\n  }\n\n  function prove(string memory guess) public returns (bool) {\n    // let blah = await mvp.deployed()\n    //blah.prove.call(\"pacific city\", {from: accounts[0]});\n    return keccak256(abi.encodePacked(guess)) == secretHash;\n  }\n\n}",
  "sourcePath": "/Users/garyschulte/dev/crypto/amazing_race/contracts/mvp.sol",
  "compiler": {
    "name": "solc",
    "version": "0.5.12+commit.7709ece9.Emscripten.clang"
  },
  "schemaVersion": "3.0.20",
  "updatedAt": "2019-12-28T10:13:37.530Z",
  "networkType": "ethereum",
  "devdoc": {
    "methods": {}
  },
  "userdoc": {
    "methods": {}
  }
}